{
  "_format": "hh-sol-artifact-1",
  "contractName": "SimpleDeFi",
  "sourceName": "contracts/Lock.sol",
  "abi": [
    {
      "inputs": [],
      "name": "SECONDS_IN_YEAR",
      "outputs": [
        {
          "internalType": "uint256",
          "name": "",
          "type": "uint256"
        }
      ],
      "stateMutability": "view",
      "type": "function"
    },
    {
      "inputs": [],
      "name": "checkBalance",
      "outputs": [
        {
          "internalType": "uint256",
          "name": "",
          "type": "uint256"
        }
      ],
      "stateMutability": "view",
      "type": "function"
    },
    {
      "inputs": [],
      "name": "deposit",
      "outputs": [],
      "stateMutability": "payable",
      "type": "function"
    },
    {
      "inputs": [
        {
          "internalType": "address",
          "name": "",
          "type": "address"
        }
      ],
      "name": "deposits",
      "outputs": [
        {
          "internalType": "uint256",
          "name": "",
          "type": "uint256"
        }
      ],
      "stateMutability": "view",
      "type": "function"
    },
    {
      "inputs": [],
      "name": "interestRate",
      "outputs": [
        {
          "internalType": "uint256",
          "name": "",
          "type": "uint256"
        }
      ],
      "stateMutability": "view",
      "type": "function"
    },
    {
      "inputs": [
        {
          "internalType": "address",
          "name": "",
          "type": "address"
        }
      ],
      "name": "lastDepositTime",
      "outputs": [
        {
          "internalType": "uint256",
          "name": "",
          "type": "uint256"
        }
      ],
      "stateMutability": "view",
      "type": "function"
    },
    {
      "inputs": [
        {
          "internalType": "uint256",
          "name": "amount",
          "type": "uint256"
        }
      ],
      "name": "withdraw",
      "outputs": [],
      "stateMutability": "nonpayable",
      "type": "function"
    }
  ],
  "bytecode": "0x6080604052600560025534801561001557600080fd5b50610b44806100256000396000f3fe6080604052600436106100705760003560e01c80637c3a00fd1161004e5780637c3a00fd14610106578063c71daccb14610131578063d0e30db01461015c578063fc7e286d1461016657610070565b806302527753146100755780632e1a7d4d146100b25780635dcc9391146100db575b600080fd5b34801561008157600080fd5b5061009c600480360381019061009791906107e4565b6101a3565b6040516100a99190610905565b60405180910390f35b3480156100be57600080fd5b506100d960048036038101906100d4919061080d565b6101bb565b005b3480156100e757600080fd5b506100f061043b565b6040516100fd9190610905565b60405180910390f35b34801561011257600080fd5b5061011b610443565b6040516101289190610905565b60405180910390f35b34801561013d57600080fd5b50610146610449565b6040516101539190610905565b60405180910390f35b610164610560565b005b34801561017257600080fd5b5061018d600480360381019061018891906107e4565b6107a2565b60405161019a9190610905565b60405180910390f35b60016020528060005260406000206000915090505481565b6000803373ffffffffffffffffffffffffffffffffffffffff1673ffffffffffffffffffffffffffffffffffffffff1681526020019081526020016000205481111561023c576040517f08c379a0000000000000000000000000000000000000000000000000000000008152600401610233906108c5565b60405180910390fd5b6000600160003373ffffffffffffffffffffffffffffffffffffffff1673ffffffffffffffffffffffffffffffffffffffff16815260200190815260200160002054426102899190610a12565b9050600060646301e13380836002546000803373ffffffffffffffffffffffffffffffffffffffff1673ffffffffffffffffffffffffffffffffffffffff168152602001908152602001600020546102e191906109b8565b6102eb91906109b8565b6102f59190610987565b6102ff9190610987565b9050806000803373ffffffffffffffffffffffffffffffffffffffff1673ffffffffffffffffffffffffffffffffffffffff168152602001908152602001600020600082825461034f9190610931565b92505081905550826000803373ffffffffffffffffffffffffffffffffffffffff1673ffffffffffffffffffffffffffffffffffffffff16815260200190815260200160002060008282546103a49190610a12565b9250508190555042600160003373ffffffffffffffffffffffffffffffffffffffff1673ffffffffffffffffffffffffffffffffffffffff168152602001908152602001600020819055503373ffffffffffffffffffffffffffffffffffffffff166108fc849081150290604051600060405180830381858888f19350505050158015610435573d6000803e3d6000fd5b50505050565b6301e1338081565b60025481565b600080600160003373ffffffffffffffffffffffffffffffffffffffff1673ffffffffffffffffffffffffffffffffffffffff16815260200190815260200160002054426104979190610a12565b9050600060646301e13380836002546000803373ffffffffffffffffffffffffffffffffffffffff1673ffffffffffffffffffffffffffffffffffffffff168152602001908152602001600020546104ef91906109b8565b6104f991906109b8565b6105039190610987565b61050d9190610987565b9050806000803373ffffffffffffffffffffffffffffffffffffffff1673ffffffffffffffffffffffffffffffffffffffff168152602001908152602001600020546105599190610931565b9250505090565b600034116105a3576040517f08c379a000000000000000000000000000000000000000000000000000000000815260040161059a906108e5565b60405180910390fd5b60008060003373ffffffffffffffffffffffffffffffffffffffff1673ffffffffffffffffffffffffffffffffffffffff168152602001908152602001600020541115610707576000600160003373ffffffffffffffffffffffffffffffffffffffff1673ffffffffffffffffffffffffffffffffffffffff16815260200190815260200160002054426106379190610a12565b9050600060646301e13380836002546000803373ffffffffffffffffffffffffffffffffffffffff1673ffffffffffffffffffffffffffffffffffffffff1681526020019081526020016000205461068f91906109b8565b61069991906109b8565b6106a39190610987565b6106ad9190610987565b9050806000803373ffffffffffffffffffffffffffffffffffffffff1673ffffffffffffffffffffffffffffffffffffffff16815260200190815260200160002060008282546106fd9190610931565b9250508190555050505b346000803373ffffffffffffffffffffffffffffffffffffffff1673ffffffffffffffffffffffffffffffffffffffff16815260200190815260200160002060008282546107559190610931565b9250508190555042600160003373ffffffffffffffffffffffffffffffffffffffff1673ffffffffffffffffffffffffffffffffffffffff16815260200190815260200160002081905550565b60006020528060005260406000206000915090505481565b6000813590506107c981610ae0565b92915050565b6000813590506107de81610af7565b92915050565b6000602082840312156107f657600080fd5b6000610804848285016107ba565b91505092915050565b60006020828403121561081f57600080fd5b600061082d848285016107cf565b91505092915050565b6000610843601283610920565b91507f496e73756666696369656e742066756e647300000000000000000000000000006000830152602082019050919050565b6000610883601c83610920565b91507f4d757374206465706f736974206d6f7265207468616e203020455448000000006000830152602082019050919050565b6108bf81610a78565b82525050565b600060208201905081810360008301526108de81610836565b9050919050565b600060208201905081810360008301526108fe81610876565b9050919050565b600060208201905061091a60008301846108b6565b92915050565b600082825260208201905092915050565b600061093c82610a78565b915061094783610a78565b9250827fffffffffffffffffffffffffffffffffffffffffffffffffffffffffffffffff0382111561097c5761097b610a82565b5b828201905092915050565b600061099282610a78565b915061099d83610a78565b9250826109ad576109ac610ab1565b5b828204905092915050565b60006109c382610a78565b91506109ce83610a78565b9250817fffffffffffffffffffffffffffffffffffffffffffffffffffffffffffffffff0483118215151615610a0757610a06610a82565b5b828202905092915050565b6000610a1d82610a78565b9150610a2883610a78565b925082821015610a3b57610a3a610a82565b5b828203905092915050565b6000610a5182610a58565b9050919050565b600073ffffffffffffffffffffffffffffffffffffffff82169050919050565b6000819050919050565b7f4e487b7100000000000000000000000000000000000000000000000000000000600052601160045260246000fd5b7f4e487b7100000000000000000000000000000000000000000000000000000000600052601260045260246000fd5b610ae981610a46565b8114610af457600080fd5b50565b610b0081610a78565b8114610b0b57600080fd5b5056fea26469706673582212203b2e444810f011c2a5c62cad0f53422678891532258198bf962cd9ab280d66dc64736f6c63430008000033",
  "linkReferences": {},
  "deployedLinkReferences": {}
}